:020000040800F2
:1000000000000220CD0900088108000883080008CC
:10001000850800088708000889080008000000001B
:100020000000000000000000000000008B08000835
:100030008D080008000000008F08000891080008E3
:100040001D0A00081D0A00081D0A00081D0A0008F4
:100050001D0A00081D0A00081D0A00081D0A0008E4
:100060001D0A00081D0A00081D0A00081D0A0008D4
:100070001D0A00081D0A00081D0A00081D0A0008C4
:100080001D0A00081D0A00081D0A00081D0A0008B4
:100090001D0A00081D0A00081D0A00081D0A0008A4
:1000A0001D0A00081D0A00081D0A00081D0A000894
:1000B0001D0A00081D0A00081D0A00081D0A000884
:1000C0001D0A00081D0A00081D0A00081D0A000874
:1000D0001D0A00081D0A00081D0A00081D0A000864
:1000E0001D0A00081D0A00081D0A00081D0A000854
:1000F0001D0A00081D0A00081D0A00081D0A000844
:100100001D0A00081D0A00081D0A00081D0A000833
:100110001D0A00081D0A00081D0A00081D0A000823
:100120001D0A00081D0A00081D0A00081D0A000813
:100130001D0A00081D0A00081D0A00081D0A000803
:100140001D0A00081D0A00081D0A00081D0A0008F3
:100150001D0A00081D0A00081D0A00081D0A0008E3
:100160001D0A00081D0A00081D0A00081D0A0008D3
:100170001D0A00081D0A00081D0A000800000000F2
:080180001D0A00081D0A000819
:1001880010B5054C237833B9044B13B10448AFF3C9
:1001980000800123237010BD3C04002000000000F3
:1001A800BC1A000808B5034B1BB103490348AFF359
:1001B800008008BD0000000040040020BC1A0008B0
:1001C80053B94AB9002908BF00281CBF4FF0FF31B6
:1001D8004FF0FF3000F074B9ADF1080C6DE904CEB2
:1001E80000F006F8DDF804E0DDE9022304B070470A
:1001F8002DE9F047089E0D4604468846002B4DD150
:100208008A42944668D9B2FA82F252B101FA02F3EC
:10021800C2F1200120FA01F10CFA02FC41EA0308BC
:1002280094404FEA1C45210CB8FBF5FE1FFA8CF7E9
:1002380005FB1E8341EA03430EFB07F199420BD9E4
:100248001CEB03030EF1FF3080F01E81994240F24F
:100258001B81AEF1020E63445B1AA4B2B3FBF5F046
:1002680005FB103344EA034400FB07F7A7420AD909
:100278001CEB040400F1FF3380F00881A74240F230
:10028800058164440238E41B40EA0E4000211EB197
:10029800D4400023C6E90043BDE8F0878B4208D963
:1002A800002E00F0EE800021C6E900050846BDE8F2
:1002B800F087B3FA83F100294AD1AB4202D38242D4
:1002C80000F2F980841A65EB030301209846002E9A
:1002D800E2D0C6E90048DFE702B9FFDEB2FA82F2EF
:1002E800002A40F09180A1EB0C054FEA1C471FFA49
:1002F8008CFE0121B5FBF7F307FB1350250C45EAEB
:1003080000450EFB03F0A84208D91CEB050503F1D4
:10031800FF3802D2A84200F2CB8043462D1AA4B27D
:10032800B5FBF7F007FB105544EA05440EFB00FE49
:10033800A64508D91CEB040400F1FF3502D2A645F6
:1003480000F2BB802846A4EB0E0440EA03409EE777
:10035800C1F120078B4022FA07FC4CEA030C20FA73
:1003680007F405FA01F31C43FD404FEA1C4900FA63
:1003780001F3B5FBF9F8200C1FFA8CFE09FB1855A0
:1003880040EA054508FB0EF0A84202FA01F20BD933
:100398001CEB050508F1FF3A80F08880A84240F27E
:1003A8008580A8F1020865442D1AA4B2B5FBF9F0BE
:1003B80009FB105544EA054500FB0EFEAE4508D979
:1003C8001CEB050500F1FF346CD2AE456AD9023842
:1003D800654440EA0840A0FB0294A5EB0E05A5423F
:1003E800C846A64656D353D05EB1B3EB080265EBB8
:1003F8000E0505FA07F722FA01F3CD401F43C6E9B7
:1004080000750021BDE8F087C2F1200320FA03F14E
:100418000CFA02FC25FA03F395400D434FEA1C47FA
:100428001FFA8CFEB3FBF7F107FB11302B0C43EAE4
:10043800004301FB0EF0984204FA02F408D91CEBC1
:10044800030301F1FF382FD298422DD902396344B2
:100458001B1AADB2B3FBF7F007FB103345EA0345AF
:1004680000FB0EF3AB4208D91CEB050500F1FF3881
:1004780016D2AB4214D902386544ED1A40EA01415C
:1004880038E73146304607E78646E5E61846FAE695
:100498004B45A9D2B9EB020864EB0C0E0138A3E76F
:1004A8004046EAE7204694E74146D1E7D0467BE755
:1004B800023B654432E7084609E76444023842E7EC
:1004C800704700BF08B50B480B4B0360102343600F
:1004D80000238360C36003614361037643768376B8
:1004E800C3760377437700F0E9FA00B908BD00F056
:1004F800E7F8FBE7580400200064004000B589B025
:100508000023039304930593069307930268154BFE
:100518009A4202D009B05DF804FB0021019103F56D
:10052800EA331A6C42F000721A641A6C02F0007214
:100538000192019A02911A6B42F001021A631B6B35
:1005480003F001030293029B4FF4C0530393022369
:100558000493032306930923079303A9024800F091
:10056800B1FBD7E7006400400000024030B58BB013
:100578000024059406940794089409940094234B46
:100588001A6B42F080021A631A6B02F08002009222
:10059800009A01941A6B42F001021A631A6B02F076
:1005A80001020192019A02941A6B42F008021A633E
:1005B8001A6B02F008020292029A03941A6B42F034
:1005C80004021A631A6B02F004020392039A049459
:1005D8001A6B42F002021A631B6B03F002030493C6
:1005E800049B0B4D22464FF48061284600F05CFCCA
:1005F8004FF480630593012306930794089405A993
:10060800284600F05FFB0BB030BD00BF0038024049
:10061800000C024008B50B480B4B03600B4B4360C2
:1006280000238360C3604FF48042026143618361A9
:10063800C361036200F03EFC00B908BD00F040F859
:10064800FBE700BF8004002000540040A0860100A2
:1006580030B589B000230393049305930693079359
:100668000268144B9A4201D009B030BD00250195AB
:10067800114C236B43F002032363236B03F0020343
:100688000193019BC023039312230493032306932E
:100698000423079303A9094800F014FB0295236C6F
:1006A80043F400132364236C03F400130293029BA6
:1006B800DAE700BF0054004000380240000402405E
:1006C80072B6FEE700B595B03022002108A801F007
:1006D8002FF900230393049305930693079301933B
:1006E800204A116C41F080511164126C02F0805262
:1006F8000192019A02931C4B1A6842F480421A60D4
:100708001B6803F480430293029B012308934FF470
:100718008033099302230E934FF480020F9206222E
:100728001092A822119212930423139308A800F0A0
:100738009FFC98B90F230393022304930023059386
:100748004FF4A05306934FF480530793052103A851
:1007580000F0DCFE20B915B05DF804FBFFF7B0FF30
:10076800FFF7AEFF003802400070004008B500F007
:1007780079F9FFF7A7FFFFF7F9FEFFF7A3FEFFF7E9
:1007880049FF00F087F800F09FF800F001F8FEE755
:1007980008B50D480D4B03604FF482734360002386
:1007A8008360C360036143614FF400728261C36177
:1007B8000362436283620A23C36200F07DFF00B9CB
:1007C80008BDFFF77DFFFBE7D4040020003001409F
:1007D80000B589B000230393049305930693079308
:1007E8000268154B9A4202D009B05DF804FB00215B
:1007F800019103F584335A6C42F480525A645A6C5E
:1008080002F480520192019A02911A6B42F001029D
:100818001A631B6B03F001030293029BE02303930B
:1008280002230493032306930523079303A903488C
:1008380000F048FAD8E700BF00300140000002404D
:1008480082B0002100910B4B5A6C42F480425A64EA
:100858005A6C02F480420092009A01911A6C42F09C
:1008680080521A641B6C03F080530193019B02B001
:10087800704700BF00380240FEE7FEE7FEE7FEE7EC
:10088800FEE770477047704708B500F005F908BDE6
:100898007047000008B50A480A4B03604FF4E1337B
:1008A800436000238360C36003610C22426183615B
:1008B800C36100F0E9FF00B908BDFFF701FFFBE7DE
:1008C8002C0500200010014008B50A480A4B0360B7
:1008D8004FF4E133436000238360C36003610C225B
:1008E80042618361C36100F0CFFF00B908BDFFF723
:1008F800E7FEFBE7700500200014014000B58BB04F
:100908000023059306930793089309930368284ADD
:10091800934205D0274A934226D00BB05DF804FBDA
:1009280000210191244B5A6C42F010025A645A6C0F
:1009380002F010020192019A02911A6B42F0010230
:100948001A631B6B03F001030293029B4FF4C0630D
:10095800059302230693032308930723099305A904
:10096800164800F0AFF9D8E700210391124B5A6CF2
:1009780042F020025A645A6C02F020020392039A51
:1009880004911A6B42F004021A631B6B03F0040310
:100998000493049BC023059302230693032308931F
:1009A8000823099305A9064800F08CF9B5E700BFAC
:1009B80000100140001401400038024000000240CD
:1009C80000080240DFF834D00D480E490E4A0023D3
:1009D80002E0D458C4500433C4188C42F9D30B4AEB
:1009E8000B4C002301E013600432A242FBD3FFF753
:1009F8004FFF00F079FFFFF7B9FE704700000220B3
:100A0800000000203C040020041B00083C040020D7
:100A1800BC050020FEE7000010B504460E4B187810
:100A28004FF47A73B3FBF0F30C4A1068B0FBF3F0A1
:100A380000F034F968B90F2C01D901200AE000222E
:100A480021464FF0FF3000F0F1F8054B1C60002004
:100A580000E0012010BD00BF0400002000000020BD
:100A68000800002008B50B4B1A6842F400721A609F
:100A78001A6842F480621A601A6842F480721A6036
:100A8800032000F0C1F80F20FFF7C6FFFFF7D8FEDC
:100A9800002008BD003C0240034A1168034B1B7844
:100AA8000B441360704700BFB40500200400002009
:100AB800014B1868704700BFB4050020002800F0FB
:100AC800A18038B5044690F82030D3B12268136865
:100AD80043F001031360FFF7EBFF054623685A68EC
:100AE80012F0010F10D1FFF7E3FF401B0A28F5D9D8
:100AF800636A43F400336362052384F820300120DD
:100B080038BDFFF7FBFCE1E71A6822F002021A6021
:100B1800FFF7CEFF054623685A6812F0020F0DD082
:100B2800FFF7C6FF401B0A28F5D9636A43F4003370
:100B38006362052384F820300120E1E7227E012A40
:100B48003DD01A6822F080021A60637E012B3BD0E8
:100B58002268136823F040031360A37E012B39D069
:100B68002268136823F020031360E37E012B37D03B
:100B78002268136843F010031360237F012B35D0DC
:100B88002268136823F008031360637F012B33D0B6
:100B98002268136823F004031360A368E268134310
:100BA80022691343626913436268013A2168134357
:100BB800CB6100206062012384F82030A0E71A6826
:100BC80042F080021A60C0E72268136843F04003CD
:100BD8001360C2E72268136843F020031360C4E778
:100BE8002268136823F010031360C6E722681368AD
:100BF80043F008031360C8E72268136843F004034E
:100C08001360CAE701207047074AD36823F4E063FA
:100C18001B041B0C000200F4E060034343F0BF63B5
:100C280043F40033D360704700ED00E000B5194B82
:100C3800DB68C3F30223C3F1070CBCF1040F28BF20
:100C48004FF0040C03F1040EBEF1060F18D9033B54
:100C58004FF0FF3E0EFA0CFC21EA0C0199400EFA07
:100C680003F322EA0303194300280BDB0901C9B285
:100C780000F1604000F5614080F800135DF804FB66
:100C88000023E5E700F00F000901C9B2024B19542F
:100C9800F4E700BF00ED00E014ED00E00138B0F12A
:100CA800807F0BD24FF0E0235861054AF02182F88B
:100CB80023100020986107221A61704701207047AD
:100CC80000ED00E000230F2B00F2E48070B582B045
:100CD80060E085685E000324B44025EA0405CC681A
:100CE800B4402C438460456825EA02054C68C4F387
:100CF80000129A402A4342605AE0DC08083450F84F
:100D0800246003F0070295000F22AA4026EA020E8B
:100D18000A69AA4042EA0E0240F824205CE0072251
:100D280000E0002202FA0EF22A4302345A4D45F836
:100D380024205A4A94686FEA0C0224EA0C054E688B
:100D480016F4801F01D04CEA0405544CA560E468F1
:100D580002EA04054E6816F4001F01D04CEA0405A7
:100D68004E4CE560646802EA04054E6816F4003FDC
:100D780001D04CEA0405494C6560246822404D685E
:100D880015F4803F01D04CEA0402444C2260013340
:100D98000F2B7DD801229A400C6804EA020C32EA33
:100DA8000404F4D14C6804F00304013C012C90D9EC
:100DB8004A6802F00302032A09D0C4685D000322CE
:100DC800AA4024EA02048A68AA402243C2604A6808
:100DD80002F00302022A90D004684FEA430E03226D
:100DE80002FA0EF224EA02044A6802F0030202FA46
:100DF8000EF2224302604A6812F4403FC7D0002234
:100E08000192274A546C44F480445464526C02F4AE
:100E180080420192019A9C08A51C1F4A52F825504D
:100E280003F003024FEA820E0F2202FA0EF225EABD
:100E380002051C4A90423FF474AF02F5806290426A
:100E48001AD002F58062904218D002F58062904272
:100E580016D002F58062904214D002F5806290426A
:100E680012D002F58062904210D002F58062904262
:100E78003FF455AF082255E7012253E7022251E714
:100E880003224FE704224DE705224BE7062249E7F4
:100E980002B070BD704700BF00380140003C0140FF
:100EA80000380240000002400AB18161704709041D
:100EB80081617047002800F0CC8070B5044690F836
:100EC8003D30002B77D0242384F83D302268136806
:100ED80023F0010313602268136843F4004313608E
:100EE8002268136823F40043136000F0C5FB6268AE
:100EF8005A4B9A4264D85A4B98428CBF002301231C
:100F0800002B40F0A8805749A1FB00318B0C2568C5
:100F18006A6822F03F0242EA91426A6021680A6ADE
:100F280022F03F0266684D4DAE424FD8013313435D
:100F38000B622168CA6922F44F4222F0FF026668F8
:100F4800464B9E424CD8431E7600B3FBF6F3013362
:100F580040F6FC70034278D0C3F30B031343CB6114
:100F680021680B6823F0C003E269206A0243134337
:100F78000B6021688B6823F4034323F0FF03226985
:100F8800E068024313438B602168CB6823F0FF03BA
:100F98006269A06902431343CB602268136843F077
:100FA8000103136000202064202384F83D3020636F
:100FB80084F83E0070BD80F83C30FFF749FB82E7BB
:100FC800294B98428CBF0023012399E74FF496756B
:100FD80005FB03F3254DA5FB03539B090133A6E746
:100FE800A368BBB9451E06EB460CB5FBFCF50135FD
:100FF800C5F30B05B5FA85F56D0945BBC3B90138CD
:1010080006EB4603B0FBF3F30133C3F30B0343F4DE
:101018000043A3E7451E06EB860C0CEB8C0CB5FBD6
:10102800FCF50135C5F30B05B5FA85F56D09E4E75F
:10103800013806EB860303EB8303B0FBF3F30133BC
:10104800C3F30B0343F4404388E7042386E70123F3
:1010580084E7012070470120ACE700BFA0860100AB
:101068007F841E0083DE1B43FF083D00D34D6210C2
:10107800002800F0E08170B582B00446036813F0E0
:10108800010F3BD09F4B9B6803F00C03042B2CD023
:101098009C4B9B6803F00C03082B21D06368B3F5C5
:1010A800803F4FD0B3F5A02F52D0964B1A6822F448
:1010B80080321A601A6822F480221A606368002B52
:1010C80050D0FFF7F5FC05468E4B1B6813F4003F24
:1010D80014D1FFF7EDFC401B6428F5D90320B1E1DA
:1010E800884B5B6813F4800FD8D0864B1B6813F4C9
:1010F800003F03D06368002B00F09F81236813F042
:10110800020F54D07F4B9B6813F00C0F3ED07D4BE1
:101118009B6803F00C03082B33D0E368002B68D0DE
:10112800794B01221A60FFF7C3FC0546754B1B6813
:1011380013F0020F54D1FFF7BBFC401B0228F5D96E
:1011480003207FE16F4A136843F480331360B5E7E7
:101158006C4B1A6842F480221A601A6842F4803292
:101168001A60ABE7FFF7A4FC0546664B1B6813F44F
:10117800003FC3D0FFF79CFC401B6428F5D903202F
:1011880060E1604B5B6813F4800FC6D15D4B1B6850
:1011980013F0020F03D0E368012B40F05081594A45
:1011A800136823F0F803216943EAC1031360236835
:1011B80013F0080F42D063696BB3534B0122C3F895
:1011C800802EFFF775FC05464E4B5B6F13F0020F40
:1011D80034D1FFF76DFC401B0228F5D9032031E11B
:1011E800484A136823F0F803216943EAC1031360EE
:1011F800DDE7454B00221A60FFF75AFC0546414BD4
:101208001B6813F0020FD2D0FFF752FC401B0228D4
:10121800F5D9032016E13C4B0022C3F8802EFFF7D6
:1012280047FC0546374B5B6F13F0020F06D0FFF7FC
:101238003FFC401B0228F5D9032003E1236813F083
:10124800040F77D02F4B1B6C13F0805F33D1002332
:1012580001932C4B1A6C42F080521A641B6C03F0F9
:1012680080530193019B0125284B1B6813F4807F51
:1012780023D0A368012B34D0052B38D0214B1A6F0B
:1012880022F001021A671A6F22F004021A67A36893
:10129800002B3DD0FFF70CFC06461A4B1B6F13F0D2
:1012A800020F46D1FFF704FC801B41F288339842B5
:1012B800F3D90320C6E00025D6E7144A136843F49F
:1012C80080731360FFF7F4FB0646104B1B6813F49A
:1012D800807FCED1FFF7ECFB801B0228F5D90320D5
:1012E800B0E0084A136F43F001031367CFE7054BDB
:1012F8001A6F42F004021A671A6F42F001021A6765
:10130800C5E700BF003802400000474200700040B7
:10131800FFF7CEFB0646524B1B6F13F0020F08D0A7
:10132800FFF7C6FB801B41F288339842F3D90320AC
:1013380088E0EDB9A369002B00F08380484A9268E1
:1013480002F00C02082A51D0022B17D0454B00227C
:101358001A66FFF7ADFB0446414B1B6813F0007F8C
:1013680042D0FFF7A5FB001B0228F5D9032069E04E
:101378003B4A136C23F080531364DBE7394B00229C
:101388001A66FFF795FB0546354B1B6813F0007F7F
:1013980006D0FFF78DFB401B0228F5D9032051E04A
:1013A800E369226A1343626A43EA8213A26A520813
:1013B800013A43EA0243E26A43EA0263284A536075
:1013C800284B01221A66FFF773FB0446244B1B685F
:1013D80013F0007F06D1FFF76BFB001B0228F5D93D
:1013E80003202FE000202DE000202BE0012B2BD044
:1013F8001B4B5B6803F48001E269914226D103F03C
:101408003F02216A8A4223D1616A47F6C0721A40B4
:10141800B2EB811F1ED103F44031A26A5208013A8F
:10142800B1EB024F18D103F07063E26AB3EB026FBD
:1014380014D1002006E001207047012002E00120BD
:1014480000E0002002B070BD0120FBE70120F9E7B1
:101458000120F7E70120F5E70120F3E70120F1E794
:10146800003802400000474208B5254B9B6803F04E
:101478000C03042B3FD0082B3FD1214B5A6802F0B4
:101488003F025B6813F4800F12D01D4B5968C1F3FB
:1014980088111C480023A1FB0001FEF791FE184BA0
:1014A8005B68C3F3014301335B00B0FBF3F025E055
:1014B800134B5968C1F3881C4FEA4C11B1EB0C006F
:1014C8006EEB0E0E4FEA8E1343EA90638101091A00
:1014D80063EB0E03DB0043EA5173C90011EB0C0CFC
:1014E80043F10003990200234FEA8C2041EA9C5102
:1014F800FEF766FED3E7034800E0034808BD00BFD7
:1015080000380240001BB7000024F400002800F057
:101518009B8070B50D4604464F4B1B6803F00703CC
:101528008B4208D2CBB24C4A1370136803F00703FE
:101538008B4240F08B80236813F0020F17D013F012
:10154800040F04D0454A936843F4E053936023683A
:1015580013F0080F04D0414A936843F46043936042
:101568003E4A936823F0F003A1680B439360236815
:1015780013F0010F32D06368012B21D09A1E012A83
:1015880025D9364A126812F0020F61D033498A68A9
:1015980022F0030213438B60FFF78AFA06462F4BAB
:1015A8009B6803F00C036268B3EB820F16D0FFF759
:1015B8007FFA801B41F288339842F0D9032042E039
:1015C800264A126812F4003FE0D101203BE0234A8A
:1015D800126812F0007FD9D1012034E01E4B1B683D
:1015E80003F00703AB4207D9EAB21B4B1A701B681A
:1015F80003F00703AB422DD1236813F0040F06D084
:10160800164A936823F4E053E1680B439360236818
:1016180013F0080F07D0114A936823F46043216937
:1016280043EAC1039360FFF71FFF0C4B9B68C3F3AA
:1016380003130B4AD35CD8400A4B18600A4B18684E
:10164800FFF7EAF9002070BD012070470120FAE792
:101658000120F8E70120F6E7003C0240003802408C
:10166800D41A00080000002008000020014B186868
:10167800704700BF0000002008B5FFF7F7FF044BD4
:101688009B68C3F38223034AD35CD84008BD00BFDC
:1016980000380240E41A000808B5FFF7E7FF044BDA
:1016A8009B68C3F34233034AD35CD84008BD00BFEC
:1016B80000380240E41A000800285AD010B5044641
:1016C800436A33B94368B3F5827F05D00023C36109
:1016D80002E00023036143610023A36294F85130C0
:1016E800002B40D0022384F851302268136823F07D
:1016F80040031360636803F48273A26802F404422F
:101708001343E26802F400621343226902F0020202
:101718001343626902F001021343A26902F40072E2
:101728001343E26902F038021343226A02F080028E
:101738001343A26A02F40052216813430B60638BBF
:1017480003F00403626A02F01002216813434B603D
:101758002268D36923F40063D36100206065012304
:1017680084F8513010BD84F850302046FFF730F827
:10177800B8E701207047000038B5044602681369CD
:1017880023F44053C1680B43136183680269134310
:1017980042691343C2691A430168CB6823F41643AC
:1017A80023F00C031343CB600268536923F440739E
:1017B80081690B4353610368314A934206D002F5AD
:1017C8008062934202D0FFF757FF01E0FFF764FF02
:1017D800E369B3F5004F29D00021031849411B18CC
:1017E80041F10001C90041EA5371DB001818636830
:1017F8004FEA83024FEA937341F10001FEF7E0FCE0
:10180800204DA5FB00325109642303FB11031B0182
:101818003233A5FB03235B0903F0F00202EB01124C
:1018280003F00F03216813448B6038BD00230218AE
:1018380043EB0301121841F10001C90041EA52715A
:10184800D200101841F10001626892185B41FEF75E
:10185800B7FC0C4DA5FB00325109642303FB1103AF
:10186800DB003233A5FB03235B095A0002F4F8724C
:1018780002EB011203F00703216813448B60D4E7DD
:10188800001001401F85EB5158B310B5044690F87D
:101898003D300BB3242384F83D302268D36823F409
:1018A8000053D3602046FFF767FF2268136923F4CB
:1018B800904313612268536923F02A035361226815
:1018C800D36843F40053D36000202064202384F8B5
:1018D8003D3084F83E3010BD80F83C30FFF70EF8FC
:1018E800D8E701207047000070B50D4E0D4D761BEE
:1018F800B61006D0002455F8043B01349847A64298
:10190800F9D1094E094D761B00F0D4F8B61006D06F
:10191800002455F8043B01349847A642F9D170BD1C
:10192800F81A0008F81A0008001B0008F81A00083E
:10193800830730B548D0541E002A3FD0CAB20346A8
:1019480001E0013C3AD303F8012B9D07F9D1032CA0
:101958002DD9CDB245EA05250F2C45EA054536D9DE
:10196800A4F1100222F00F0C03F1200EE6444FEA16
:10197800121C03F1100242E9045542E902551032E3
:101988007245F8D10CF1010214F00C0F03EB0212AE
:1019980004F00F0C13D0ACF1040323F00303043359
:1019A800134442F8045B9342FBD10CF003042CB1BE
:1019B800CAB21C4403F8012B9C42FBD130BD6446DB
:1019C8001346002CF4D1F9E703461446BFE71A463C
:1019D800A446E0E7024B13B1024800F005B870478F
:1019E80000000000FD190008002301461A461846A9
:1019F80000F01AB838B5084B084D5B1B9C1007D08F
:101A0800043B1D44013C55F804399847002CF9D192
:101A1800BDE8384000F054B8041B0008001B00085B
:101A2800704700BF704700BF2DE9F047DFF87CA082
:101A38000646DAF8000098460F469146FFF7F0FF91
:101A48001B4B1B68D3F8484124B365681F2D26DC5F
:101A58005EB96B1C0235DAF80000636044F8257043
:101A6800FFF7E0FF0020BDE8F08704EB85010123C4
:101A7800C1F88890D4F88821AB401A43022EC4F8E4
:101A88008821C1F80881E4D1D4F88C211343C4F823
:101A98008C31DEE703F5A674C3F84841D5E7DAF8D8
:101AA8000000FFF7BFFF4FF0FF30DCE738040020ED
:101AB800EC1A0008F8B500BFF8BC08BC9E46704791
:0C1AC800F8B500BFF8BC08BC9E46704793
:101AD40000000000000000000102030406070809DA
:0C1AE400000000000102030410000020BC
:081AF00008E7FF7F0100000080
:081AF800DD190008AD01000832
:041B0000890100084F
:101B04000024F400010000001000000000000000A8
:101B140000000000FC02002064030020CC0300202D
:101B240000000000000000000000000000000000B1
:101B340000000000000000000000000000000000A1
:101B44000000000000000000000000000000000091
:101B54000000000000000000000000000000000081
:101B64000000000000000000000000000000000071
:101B74000000000000000000000000000000000061
:101B84000000000000000000000000000000000051
:101B94000000000000000000000000000000000041
:101BA4000000000000000000000000000000000031
:101BB4000000000000000000010000000000000020
:101BC4000E33CDAB34126DE6ECDE05000B000000E5
:101BD4000000000000000000000000000000000001
:101BE40000000000000000000000000000000000F1
:101BF40000000000000000000000000000000000E1
:101C040000000000000000000000000000000000D0
:0C1F34000000000000000000B8050020C4
:04000005080009CD19
:00000001FF
